:020000040800F2
:1000000068070020590B0008CB010008CD0100084B
:10001000D1010008D5010008D90100080000000046
:10002000000000000000000000000000DD010008EA
:10003000DF01000800000000E1010008E301000802
:10004000730B0008730B0008730B0008730B000898
:10005000730B0008730B0008730B0008730B000888
:10006000730B0008730B0008730B0008730B000878
:10007000730B0008730B0008730B0008730B000868
:10008000730B0008730B0008730B0008730B000858
:10009000730B0008730B0008730B0008730B000848
:1000A000730B0008730B0008730B0008730B000838
:1000B000892E00083F2F0008F92F0008730B000855
:1000C000730B0008730B0008730B0008730B000818
:1000D000730B0008D92B0008730B0008730B000882
:1000E000730B0008730B0008730B0008730B0008F8
:1000F000730B0008730B0008730B0008730B0008E8
:10010000730B0008730B0008730B0008730B0008D7
:10011000730B0008730B0008730B0008730B0008C7
:10012000730B0008730B0008730B0008730B0008B7
:1001300000F002F800F03CF80AA090E8000C8244BD
:100140008344AAF10107DA4501D100F031F8AFF29A
:10015000090EBAE80F0013F0010F18BFFB1A43F0A5
:100160000103184794500000B4500000103A24BF17
:1001700078C878C1FAD8520724BF30C830C144BF0C
:1001800004680C607047000000230024002500264E
:10019000103A28BF78C1FBD8520728BF30C148BFEA
:1001A0000B6070471FB5AFF300801FBD10B510BDC9
:1001B00002F09CFF1146FFF7F5FF00F031F902F065
:1001C000BAFFFFF7F3FF02F0ADFC704700BFFEE798
:1001D00000BFFEE700BFFEE700BFFEE770477047C5
:1001E0007047704700200021674A126842F480324D
:1001F000654B1A6000BF644A126802F40031401C6B
:1002000011B9B0F5A06FF6D15F4A126812F4003F41
:1002100001D0012100E00021012942D15B4A12688E
:1002200042F01002594B1A601A46126822F003027B
:100230001A601A46126842F002021A60524A526864
:10024000514B5A601A4652685A601A46526842F434
:1002500080625A601A46526822F47C125A601A462A
:10026000526842F4E8125A601A46126842F08072EC
:100270001A6000BF444A126812F0007FFAD0424A66
:10028000526822F00302404B5A601A46526842F00C
:1002900002025A6000BF3C4A526802F00C02082A6F
:1002A000F9D1704710B5FFF79DFF10BD10B5364866
:1002B000006840F00100344908600846406834494D
:1002C00008403149486008460068324908402E49D4
:1002D00008600846006820F48020086008464068EE
:1002E00020F4FE0048604FF41F008860FFF7DAFF3B
:1002F0004FF000602849086010BD10B500200021B3
:100300000022214B5B6803F00C0020B1042806D0CA
:10031000082828D107E0214B214C236027E01F4B00
:100320001F4C236023E0184B5B6803F47011164BDD
:100330005B6803F48032022303EB914122B9194B2D
:100340004B43174C23600DE00F4B5B6813F4003FE9
:1003500004D0144B4B43124C236003E00F4B4B4330
:100360000F4C236003E00D4B0D4C236000BF00BF1A
:10037000054B5B68C3F303130B4CE05C084B1B6835
:10038000C340074C236010BD001002400020024013
:100390000000FFF8FFFFF6FE08ED00E000127A0013
:1003A0000000002000093D000400002010B54FF4BB
:1003B000165002F0C5FB02F055FB02F0D5FC02F02E
:1003C000EFFC02F04FFC0120FF4908600020FF49CC
:1003D000C1F88801072140F2E73002F0E0FD10BDCE
:1003E00010B502461088012307E032F8134084421A
:1003F00001DA32F813005C1CE3B28B42F5DB10BD6E
:1004000010B502461088012307E032F813408442F9
:1004100001DD32F813005C1CE3B28B42F5DB10BD4A
:100420002DE9F04FADF5417D0020C09042F20F75EF
:1004300000BFBF9081460320BE900020BD90BC90BD
:10044000BB90BA90B99000BF1822E149ADA802F064
:1004500002FEDF491831A9A81EC91EC0DC49283197
:10046000A5A81EC91EC000209E909A904FF49072BD
:10047000D749383145A802F0EEFDF422D54908A845
:1004800002F0E9FDFFF792FF4BE3D348008810F438
:10049000004F78D0D14890F80080B8F1210F0AD1F0
:1004A0004FF00209A8F1200000F0FF08BA9810B937
:1004B00017250220BE90B8F1110F0AD14FF00109A3
:1004C000A8F1100000F0FF08BA9810B91825022012
:1004D000BE90B8F1010F01D10120BD90B8F1020F1B
:1004E00012D10020BD9000BFB749091D086000214E
:1004F0004FF0804001F03FFD0020B949C1F8A00154
:100500000021B84801F037FDB8F1030F12D14FF0C8
:10051000000900250020B44908800120BE90002178
:10052000800701F028FD0020B04908600021AD4897
:1005300001F021FDB8F1300F04D10120BB90002063
:10054000AB490880B8F1310F01D10020BB90B8F160
:10055000400F06D10120BA90BE9000250020A2498C
:100560000880B8F1410F01D10220BA90B8F1420FD2
:1005700006D1002500209C490880BA900120BE9039
:10058000002095490880BF9881457ED0B9F1000FC1
:100590007CD0B9F1010F07D145A8B6900020B590E5
:1005A0000320B4901420B390B9F1020F07D108A82A
:1005B000B6900020B5900220B4902820B390002679
:1005C0002EE0B5983044C7B20B2F0BDDA7F10C001D
:1005D000C7B2ADA830F817004004000C9FA921F85D
:1005E000160005E0ADA830F817009FA921F8160005
:1005F000B498012807D19FA830F8160040109FA991
:1006000021F816000AE0B498032807D19FA830F813
:1006100016004004000C9FA921F81600701CC6B2F9
:100620000C2ECEDB0C219FA8FFF7EAFE4004000C45
:10063000B8900C219FA8FFF7D3FE4010B790002080
:10064000969003E09698801C80B296909699B69802
:1006500030F811000028F5D19D904EF66021B39836
:1006600091FBF0F01FFA80FA50464FEAEA710AEB6C
:1006700091718910999199988000052190FBF1F072
:100680009999081A80B2999001E00DE003E00020EA
:100690005849088003E001204B49091D08600120EA
:1006A00049490860CDF8FC92BF9800287ED0514897
:1006B000008800287AD1B9980028FBD14B490860FE
:1006C000BD980128F6D1BC9890B99A9880B10020C5
:1006D00008609A999E9808449E9040F21F114FF628
:1006E000FF7002F0A3FB43499A98088000209A907B
:1006F000BC9801280DD100209D90BF98012803D1FE
:1007000018250220BE9002E017250220BE9000208E
:10071000BC90384800880028CCD196999D98884292
:100720006CDA0020314908609D99B69830F81100C4
:10073000C0B294909D98401CB69931F81000C0B298
:1007400093909D98801C80B29D900A21949890FB74
:10075000F1F201FB1200C0B29290949890FBF1F07C
:1007600090FBF1F201FB1200C0B2909064219498CA
:1007700090FBF1F0C0B291909298401EA9A931F877
:100780001010919808449FA931F810009890929801
:10079000002859D09098012802D19898401098903C
:1007A0009098032805D19898400400E0BEE0000C22
:1007B00098901149989891FBF0F080B297900120A1
:1007C0000149086000201AE0840122420000224210
:1007D0001C4F000874500008300000203C0000202E
:1007E000000021420004004038000020A001214206
:1007F0003A000020140000201FA107007FE0C94933
:10080000C1F88801B79AB899881A04F007FA0590D8
:10081000B79A9899881A04F001FA0490059904F09F
:10082000DFF8C149069004F013FA079004F0CAF902
:1008300080B2959007224FF47A70959902F037FBB9
:100840000721979802F0F2FA0A21939890FBF1F2AF
:1008500001FB1200A5A931F81000C0B28F900A2147
:10086000939890FBF1F090FBF1F201FB1200C0B203
:100870008E906421939890FBF1F0C0B28D908F9888
:100880009AFBF0F080B29C908D98012806D19C983C
:1008900000EBD07100EB610189B29C918E98012828
:1008A00018D08E9880B98F98042805DC99999C9867
:1008B000401A80B29B900FE09C988000052190FB2D
:1008C000F1F080B29B9007E09C9800EBD07149104A
:1008D0009B9101E09C989B90929808B900209B9076
:1008E0009B999C98401A80B29A909298F0B18F4947
:1008F0009B9808809B999E9808449E9016E0002043
:100900009D90BD904FF47A719E9890FBF1F085B266
:10091000BA9858B9B9F1010F02D118250220BE903A
:10092000B9F1020F02D117250220BE90804800883D
:10093000C8282EDBBB9801282BD1092002F0E1F951
:1009400083464FEAEB720BEB126001127948CDF847
:100950001CB001F004FF00BF4021764801F06DFF9C
:100960000128F9D14FEAEB700BEB10600012ABEBF2
:10097000002081B26F48CDF81CB001F0F0FE00BF3E
:1009800040216C4801F059FF0128F9D10020684945
:10099000088069480088C09988427ED042F20F7072
:1009A000854202DD00250120BE90BA98012824D19D
:1009B00061480088642804DB681C85B200205E4919
:1009C0000880BE9803F052FC0B460246CDE90601B2
:1009D0005AA003C802F00CFCCDE90401284603F03C
:1009E00045FCCDE90201DDE9042303F0F1FB3ED132
:1009F000BE98401CC0B2BE9039E015B90120BE902F
:100A000035E0002D0DDD4C480088B0F57A7F08DB1D
:100A1000681E85B2002048490880BD9808B9681C46
:100A200085B2BE98012822DDBE99481E03F008FC5D
:100A30000B460246CDE9060140A003C802F0D8FBF0
:100A4000CDE904013FA00CC8049803F023FECDE9D2
:100A50000201284603F00AFCCDE90001DDE902238A
:100A600003F0B6FB03D1BE98401EC0B2BE90324820
:100A70000088BE9990FBF1F201FB120084B294B998
:100A800000212846BA9A01F09FFF00202F490860F4
:100A900001202449C1F8980100E042E02C49086097
:100AA0002C49C1F89801012C11D101212846BA9A8C
:100AB00001F08AFF01202549086000201949C1F88A
:100AC00098010120224908602249C1F89801022CAE
:100AD00011D102212846BA9A01F076FF01201B4964
:100AE00008601049C1F898010020194908600120E8
:100AF0001849C1F89801032C10D103212846BA9A4D
:100B000001F062FF0120114908600649C1F898010F
:100B10000F49086000200F49C1F898010648008875
:100B2000C090B2E40000224200007A441400002089
:100B30003A0000200038014038000020000000008A
:100B400000002440000000000000F03F9C01224211
:100B5000940121420000214209488047094800478A
:100B6000FEE7FEE7FEE7FEE7FEE7FEE7FEE7FEE75D
:100B7000FEE7FEE704480549054A064B70470000BA
:100B8000AD0200083101000868010020680700205C
:100B9000680300206803002032490143324A116093
:100BA000704770B5002100230F22C4780CB32E4C7F
:100BB000246804F4E064C4F5E064210AC1F104038C
:100BC000CA40447804FA03F18478144021430901AF
:100BD000264C0678A155047804F01F050124AC408A
:100BE00005786D114FF0E02606EB8505C5F800414C
:100BF00009E0047804F01F040125A5401C4C067888
:100C0000761144F8265070BD1A4A0A400243164B2A
:100C10001B1F1A60704741B1134A121D126802432C
:100C20004FF0E023C3F8102D07E00F4A121D1268A1
:100C300082434FF0E023C3F8102D7047042808D1F9
:100C40004FF0E021096941F004014FF0E022116109
:100C500007E04FF0E021096921F004014FF0E022A4
:100C6000116170470000FA050CED00E000E400E0BF
:100C700080E100E080FFFF1F10B50446F748844282
:100C800008D10121401500F033FD0021601500F06E
:100C90002FFD17E0F248844208D10121001500F031
:100CA00027FD0021201500F023FD0BE0ED488442D4
:100CB00008D10121C80300F01BFD00214FF40040C2
:100CC00000F016FD10BD30B5002200234268E64C4E
:100CD00022400D790C6844EA052422434260826870
:100CE000E24C2240D1E902542C434D7944EA4504B8
:100CF00022438260C26A22F470020C7C641EE4B259
:100D0000234342EA0352C26230BD002101600171F7
:100D100041718160C16001210174704721B1826815
:100D200042F00102826003E0826822F001028260E8
:100D3000704721B1826842F48072826003E0826869
:100D400022F480728260704710B50023CBB21AB1D2
:100D500044681C43446002E044689C43446010BD06
:100D6000816841F0080181607047014600208A686F
:100D700012F0080F01D0012000E0002070478168C8
:100D800041F0040181607047014600208A6812F03A
:100D9000040F01D0012000E00020704721B18268DB
:100DA00042F4A002826003E0826822F4A002826022
:100DB0007047014600208A6812F4800F01D001209C
:100DC00000E00020704710B500220023426822F4A2
:100DD00060424B1E42EA4332426010BD21B142687C
:100DE00042F40062426003E0426822F40062426022
:100DF0007047F0B500240025092911DDC468A1F170
:100E00000A0606EB4607072606FA07F5AC43A1F1EA
:100E10000A0606EB460603FA06F52C43C4600CE00E
:100E2000046901EB4107072606FA07F5AC4301EB1D
:100E3000410603FA06F52C430461072A0FDA446BD6
:100E4000561E06EB86071F2606FA07F5AC43561E0C
:100E500006EB860601FA06F52C43446322E00D2AD0
:100E60000FDA046BD61F06EB86071F2606FA07F576
:100E7000AC43D61F06EB860601FA06F52C43046345
:100E800010E0C46AA2F10D0606EB86071F2606FADB
:100E900007F5AC43A2F10D0606EB860601FA06F54E
:100EA0002C43C462F0BD21B1826842F4801282609A
:100EB00003E0826822F48012826070470146C86CA9
:100EC00080B2704765484C300068704721B1426875
:100ED00042F48062426003E0426822F48062426031
:100EE000704721B1426842F48052426003E0426898
:100EF00022F48052426070470022826822F4E0426D
:100F00000A438260704721B1826842F400428260E5
:100F100003E0826822F400428260704721B1826857
:100F200042F40212826003E0826822F402128260BC
:100F30007047014600208A6812F4001F01D001208A
:100F400000E000207047F0B50024002500260929A4
:100F500011DDC468A1F10A0707EB470C072707FA60
:100F60000CF5AC43A1F10A0707EB470703FA07F5B5
:100F70002C43C4600CE0046901EB410C072707FA1D
:100F80000CF5AC4301EB410703FA07F52C43046170
:100F9000846BC4F30156D71C06F1010CA7EB0C07B8
:100FA00007EB870C1F2707FA0CF5AC43D71C06F19B
:100FB000010CA7EB0C0707EB870701FA07F52C4399
:100FC0008463F0BD10B500220023826B22F440122E
:100FD0004B1E42EA0352826310BD10B50023034644
:100FE00018460B441A6010BD0246002313461A46E9
:100FF00001F128000344186880B27047002242685B
:101000001B4B1A400A43426070474162826270473C
:101010000022426822F01F020A434260704740B13A
:101020000E490831096841F40001124AC2F8081457
:1010300007E00A490831096821F400010D4AC2F8A5
:10104000081470470246002013680B4201D00120AB
:1010500000E000207047CA4302607047002401404E
:1010600000280140003C0140FFFEF0FFFDF7F1FFCA
:10107000FFFD3FFF0020014070B502460020002325
:1010800000240B125568CEB205EA060415681D420D
:1010900002D00CB1012000E0002070BD00220A1235
:1010A000D34303607047000010B50446C74884422C
:1010B00008D10121042000F01BFB0021042000F0D6
:1010C00017FB46E0C248844208D10121082000F005
:1010D0000FFB0021082000F00BFB3AE0BD488442E2
:1010E00008D10121102000F003FB0021102000F0A6
:1010F000FFFA2EE0B848844208D10121202000F0F8
:10110000F7FA0021202000F0F3FA22E0B3488442ED
:1011100008D10121402000F0EBFA0021402000F02E
:10112000E7FA16E0AE48844208D10121802000F0A1
:10113000DFFA0021802000F0DBFA0AE0A9488442AF
:1011400007D10121801500F0D3FA0021A01500F08D
:10115000CFFA10BD10B50121084600F0C9FA0021F0
:10116000012000F0C5FA10BDF0B5002200230024D4
:1011700000250026002791F803C00CF00F0291F81B
:1011800003C01CF0100F03D091F802C04CEA020219
:10119000B1F800C01CF0FF0F31D0066800242BE02E
:1011A0004FF0010C0CFA04F5B1F800C00CEA05038D
:1011B000AB4220D1A5004FF00F0C0CFA05F7BE434F
:1011C00002FA05FC4CEA060691F803C0BCF1280FB0
:1011D00006D14FF0010C0CFA04FCC0F814C00AE070
:1011E00091F803C0BCF1480F05D14FF0010C0CFA87
:1011F00004FCC0F810C0641C082CD1D30660B1F800
:1012000000C0BCF1FF0F34DD466800242EE004F17D
:10121000080C4FF0010E0EFA0CF5B1F800C00CEA04
:101220000503AB4221D1A5004FF00F0C0CFA05F7D6
:10123000BE4302FA05FC4CEA060691F803C0BCF175
:10124000280F05D104F1080C0EFA0CFEC0F814E0CA
:1012500091F803C0BCF1480F07D104F1080C4FF01E
:10126000010E0EFA0CFEC0F810E0641C082CCED360
:101270004660F0BD4FF6FF710180022181700421AC
:10128000C17070470246002093680B4201D00120D4
:1012900000E0002070470146886880B2704702462F
:1012A0000020D3680B4201D0012000E000207047ED
:1012B0000146C86880B2704701617047416170475C
:1012C0000AB1016100E041617047C16070474FF4AD
:1012D00080320A43826181618261826982697047DA
:1012E0000022414B1A684FF680731A4042EA0012FE
:1012F0000A433D4B1A6070473C49C8617047F0B5DE
:10130000002200230024002500F00046B6F1004F23
:1013100002D1354EF46901E0334E7468C0F30345E1
:1013200082B200F44016B6F5401F08D124F0706474
:101330002D4E766826F070662B4F7E6012E000F42A
:101340008016B6F5801F06D1032606FA05F39C43E6
:1013500044F0706406E0460D360102FA06F6B44326
:1013600044F0706421B1460D360102FA06F63443AA
:1013700000F00046B6F1004F02D11B4EF46101E0CF
:10138000194E7460F0BD30B500228B071C0F0F237F
:1013900003FA04F2144B08338C1053F8244094439E
:1013A0008D1043F825408C1053F824308C07240FFF
:1013B00000FA04F423430C4C08348D1044F8253013
:1013C00030BD0A49DC310860704700000008014068
:1013D000000C0140001001400014014000180140C1
:1013E000001C01400020014000000140000020429C
:1013F000DB48006840F00100D949086008464068B1
:10140000D8490840D649486008460068D64908408F
:10141000D34908600846006820F480200860084628
:10142000406820F4FE0048604FF41F008860704759
:10143000CB49096821F48031C94A11601146096815
:1014400021F480211160B0F5803F03D0B0F5802FEA
:101450000ED106E0C249096841F48031C04A1160EA
:1014600007E0BF49096841F4A021BD4A116000E0CE
:1014700000BF00BF704710B50146002200230020C6
:101480004A11012A02D1B64C236806E0022A02D191
:10149000B34C236A01E0B24C636A01F01F020124DD
:1014A00094401C4201D0012000E0002010BD70B526
:1014B00000240025002600BF3120FFF7DCFF064690
:1014C000641CB4F5A06F01D0002EF5D03120FFF7D9
:1014D000D2FF08B1012500E00025284670BD00219B
:1014E0009F4A116821F0F80141EAC001116070477C
:1014F0009E49086070470022994B5A6822F47C127A
:1015000040EA01031A43964B5A60704797490866B0
:1015100070470021924A516821F003010143516054
:1015200070478F48406800F00C00704700218C4ADB
:10153000516821F0F0010143516070470021884A51
:10154000516821F4E0610143516070470021844AF1
:10155000516821F4605141EAC0015160704729B1DE
:101560007F4A527A02437E4B5A7206E07C4A527A94
:10157000C343DBB21A407A4B5A7270477B49D83169
:10158000086070470021764A516821F440410143C8
:10159000516070470021724A20321170704A82F8FF
:1015A0002010012802D004280AD104E001216C4A4D
:1015B0002032117005E00521694A2032117000E0E7
:1015C00000BF00BF70476A49086070476449096AF4
:1015D0000143634A116270476549443908607047A6
:1015E00030B500210022002300245D4D6D6805F018
:1015F0000C0121B1042905D0082923D105E05D4D56
:10160000056022E05B4D05601FE0554D6D6805F4F7
:101610007012534D6D6805F48033022505EB92423C
:101620001BB9554D554305600BE04D4D6D6815F4E4
:10163000003F03D0504D5543056002E04D4D5543EA
:10164000056002E04B4D056000BF00BF444D6D6872
:1016500005F0F0010909494D6C5C0568E5404560FD
:101660003F4D6D6805F4E061090A444D6C5C4568C6
:10167000E54085603A4D6D6805F46051C90A3F4DFB
:101680006C5C4568E540C560354D6D6805F44041CA
:10169000890B3A4D10356C5CC568B5FBF4F50561F6
:1016A00030BD29B12E4A526902432D4B5A6104E0E4
:1016B0002B4A526982432A4B5A61704729B1284A02
:1016C00092690243264B9A6104E0254A926982435B
:1016D000234B9A61704729B1214AD2690243204BBA
:1016E000DA6104E01E4AD26982431D4BDA61704719
:1016F00029B11B4AD2680243194BDA6004E0184A48
:10170000D2688243164BDA60704729B1144A1269D5
:101710000243134B1A6104E0114A12698243104BD1
:101720001A61704712494039086070470F49C86410
:1017300070470B49C87170470948406A40F0807093
:1017400007494862704701460020054A92680A42EC
:1017500001D0012000E000207047014988727047E5
:10176000001002400000FFF8FFFFF6FE00004242BA
:101770008004424200127A0000093D001600002059
:1017800010B50446FF48844208D10121C014FFF778
:10179000AFFF0021E014FFF7ABFFC4E0B4F1804FCE
:1017A00008D101210846FFF7B0FF00210120FFF713
:1017B000ACFFB8E0F448844208D101210220FFF7D1
:1017C000A4FF00210220FFF7A0FFACE0EF48844215
:1017D00008D101210420FFF798FF00210420FFF722
:1017E00094FFA0E0EA48844208D101210820FFF7D5
:1017F0008CFF00210820FFF788FF94E0E548844231
:1018000008D101211020FFF780FF00211020FFF7F1
:101810007CFF88E0E048844208D101212020FFF7C6
:1018200074FF00212020FFF770FF7CE0DB4884423A
:1018300008D101214014FFF75BFF00216014FFF77E
:1018400057FF70E0D648844209D10121C804FFF750
:101850004FFF00214FF40020FFF74AFF63E0D1481B
:10186000844209D101210805FFF742FF00214FF40E
:101870008010FFF73DFF56E0CB48844209D101219B
:101880004805FFF735FF00214FF40010FFF730FF48
:1018900049E0C648844208D101214020FFF735FFC6
:1018A00000214020FFF731FF3DE0C148844208D1CC
:1018B00001218020FFF729FF00218020FFF725FF6D
:1018C00031E0BC48844208D101218015FFF71DFF9B
:1018D0000021A015FFF719FF25E0B748844209D180
:1018E00001210804FFF704FF00214FF48030FFF7C7
:1018F000FFFE18E0B148844209D101214804FFF7F6
:10190000F7FE00214FF40030FFF7F2FE0BE0AC4889
:10191000844208D101218804FFF7EAFE00214FF438
:101920008020FFF7E5FE10BD00220288954B98420B
:101930000ED09A4B98420BD0B0F1804F08D0924B0A
:10194000984205D0914B984202D0914B984204D1D5
:101950004FF68F731A404B881A438E4B984207D02C
:101960008D4B984204D04FF6FF431A40CB881A4360
:1019700002808B8883850B880385824B98420BD02D
:10198000864B984208D08C4B984205D08B4B98429E
:1019900002D08B4B984201D10B7A038601238382BC
:1019A000704770B5002200230024058C4FF6FE76A8
:1019B00035400584038C8488028B4FF68F752A404E
:1019C000B51E2A400D882A43751E2B400D892B43D6
:1019D0004D882B436B4DA8420BD0704DA84208D0C8
:1019E000754DA84205D0754DA84202D0744DA8424D
:1019F00013D14FF6F7752B404D892B434FF6FB75EE
:101A00002B408D882B434FF6FF652C404FF6FF553A
:101A10002C408D892C43CD892C4384800283CD8832
:101A20008586038470BD70B5002200230024058CD8
:101A30004FF6EF7635400584038C8488028B48F698
:101A4000FF752A404FF6FF452A400D882D0642EAD1
:101A500015424FF6DF752B400D892D0543EA1543DE
:101A60004D882D0543EA1543464DA84202D04B4D03
:101A7000A8421BD14FF67F752B404D892D0543EAB7
:101A800015434FF6BF752B408D882D0543EA15434E
:101A90004FF6FF352C404FF2FF752C408D89AD0479
:101AA00044EA1544CD89AD0444EA15448480028398
:101AB000CD880587038470BD70B500220023002403
:101AC000058C4FF6FF6635400584038C8488828B35
:101AD0004FF68F752A404FF6FC752A400D882A4331
:101AE0004FF6FF552B400D892D0643EA15434D88CF
:101AF0002D0643EA1543234DA84202D0274DA842A4
:101B00001BD14FF2FF752B404D892D0643EA15433B
:101B10004FF6FF352B408D882D0643EA15434EF6D0
:101B2000FF752C404DF6FF752C408D892D0544EA3C
:101B30001544CD892D0544EA154484808283CD88DF
:101B40008587038470BD70B5002200230024058CB6
:101B50004EF6FF7635400584038C8488828B48F6E8
:101B6000FF752A404FF6FF452A400D882D0642EAB0
:101B700015424DF6FF752B400D892D0743EA15439D
:101B80004D881FE0002C0140000400400008004088
:101B9000000C0040001000400014004000340140E0
:101BA000004C01400050014000540140001800402A
:101BB000001C004000200040004001400044014063
:101BC000004801402D0743EA1543F84DA84202D0D2
:101BD000F74DA84206D14BF6FF752C408D89AD0517
:101BE00044EA154484808283CD88A0F84050038461
:101BF00070BD828B4FF2FF331A408283828B0B06BB
:101C000042EA134282837047F0B500240025002683
:101C1000078C4EF6FF7C07EA0C070784848B058C43
:101C20000F073E0C40F6FF473C40170644EA1744B6
:101C30001F0744EA1744DD4FB8420ED0DC4FB842CC
:101C40000BD0B0F1804F08D0DA4FB84205D0DA4F50
:101C5000B84202D0D94FB84206D14DF6FF773D4089
:101C600046F480573D4305E047F6FF573D4041F4B9
:101C700080573D4384830584F0BD828B4FF6F37318
:101C80001A408283828B0A4382837047F0B5002416
:101C900000250026078C4FF6FF6C07EA0C07078427
:101CA000848B058C0F063E0C4FF60C773C401F05CD
:101CB00042EA17473C43BD4FB8420ED0BC4FB84232
:101CC0000BD0B0F1804F08D0BA4FB84205D0BA4F10
:101CD000B84202D0B94FB84206D14FF6FF573D4047
:101CE00046F480773D4305E04FF2FF573D4041F415
:101CF00080773D4384830584F0BD028B4FF2FF3330
:101D00001A400283028B0B0642EA13420283704799
:101D1000F0B5002400250026078C4FF6EF7C07EA7B
:101D20000C070784048B058C0F053E0C40F6FF471B
:101D30003C401F0744EA1744170644EA17449B4FE8
:101D4000B8420ED09A4FB8420BD0B0F1804F08D0B5
:101D5000984FB84205D0984FB84202D0974FB8423A
:101D600006D14FF6DF773D4046F010073D4305E0D2
:101D70004FF65F773D4041F010073D4304830584F3
:101D8000F0BD028B4FF6F3731A400283028B0A43B5
:101D900002837047F0B500240025068C4FF6FE77CD
:101DA0003E400684048B058C4FF60C7634401E05AD
:101DB00042EA164634437D4EB0420ED07C4EB042CD
:101DC0000BD0B0F1804F08D07A4EB04205D07A4E99
:101DD000B04202D0794EB04206D14FF6FD76354082
:101DE00041F00106354305E04FF6F576354041F008
:101DF0000106354304830584F0BD70B504460D46E5
:101E00006A4884420ED06A4884420BD0B4F1804FB5
:101E100008D06848844205D06748844202D06748A9
:101E2000844200D100E000BF288850B92B89AA88DD
:101E300069882046FFF7AEFFE9882046FFF7A1FF3B
:101E400025E0288804280AD12B89AA886988204699
:101E5000FFF75EFFE9882046FFF74FFF17E028886D
:101E600008280AD12B89AA8869882046FFF70EFF27
:101E7000E9882046FFF701FF09E02B89AA886988D5
:101E80002046FFF7C1FEE9882046FFF7B2FE70BD8D
:101E90002DE9F04104460D4600260127688808B95F
:101EA000022600E00026A888012801D1022700E0D0
:101EB00001272888A0B92B89AA8869882046FFF7BE
:101EC00069FFE9882046FFF75CFF2B893A463146D7
:101ED0002046FFF71DFFE9882046FFF70EFF13E0BD
:101EE0002B89AA8869882046FFF712FFE9882046D7
:101EF000FFF703FF2B893A4631462046FFF74AFF9A
:101F0000E9882046FFF73DFFBDE8F0810A884B884D
:101F10001A438B881A43CB881A430B891A434B897F
:101F20001A438B891A43A0F8442070474FF6FF717B
:101F3000818000210180C1804180017270470021B1
:101F4000018041808180C180018141818181C18185
:101F50007047002101804180012181800021C180E2
:101F6000018170470021018041808180C180018111
:101F700041818181704721B1028842F001020280D3
:101F800004E002884FF6FE731A400280704731B1B8
:101F9000B0F8442042F40042A0F8442005E0B0F834
:101FA0004420C2F30E02A0F844207047002C0140E8
:101FB000003401400004004000080040000C0040D4
:101FC00010B51AB183890B43838104E08389CC4324
:101FD000A4B22340838110BD8182704741EA02038D
:101FE000A0F84830704710B51AB183890B4383813C
:101FF00004E08389CC43A4B22340838110BD0189CE
:102000004FF6F872114001817047002202894FF6A5
:102010008F731A400A430281704730B504460D465B
:1020200029462046FFF7F1FF208940F00700208174
:1020300030BD2DE9F04104460D4616461F46602D81
:1020400006D13B46012231462046FFF761FE05E0FE
:102050003B46012231462046FFF79CFE294620469A
:10206000FFF7D3FF208940F007002081BDE8F08111
:1020700030B500240489E4B21D0642EA15450D433B
:102080002C43048130BD2DE9F04104460D4616462F
:10209000984600274346324629462046FFF7E8FF88
:1020A00027894FF6F870074047F007074FF68F7003
:1020B000074047F070072781BDE8F081F0B504467E
:1020C0000D4616461F463B46324629462046FFF738
:1020D000CFFF208940F480402081F0BD01858282BD
:1020E0007047002202884FF68F731A400A4302801D
:1020F0007047F0B50024002500260489058B068C66
:102100004FF6F8773C400C434FF6FC473D4040F219
:1021100001173D434FF6DD773E401F0542EA174762
:102120003E43048105830684F0BD0022028B4FF6F6
:102130008F731A400A43028370470022028B48F6CD
:10214000FF731A400B0642EA1342028370470022D3
:10215000828B4FF68F731A400A43828370470022A6
:10216000828B48F6FF731A400B0642EA13428283C1
:10217000704721B1028842F08002028004E00288A8
:102180004FF67F731A400280704721B1828842F077
:102190000402828004E082884FF6FB731A4082803A
:1021A000704721B1828842F00802828004E0828870
:1021B0004FF6F7731A408280704721B1828842F04F
:1021C0000102828004E082884FF6FE731A4082800A
:1021D00070470022028B4FF6F7731A400A430283BE
:1021E00070470022028B4FF2FF731A400B0642EA3F
:1021F0001342028370470022828B4FF6F7731A4016
:102200000A43828370470022828B4FF2FF731A4089
:102210000B0642EA1342828370470022028B4FF67C
:10222000FB731A400A43028370470022028B4FF669
:10223000FF331A400B0642EA134202837047002222
:10224000828B4FF6FB731A400A4382837047002249
:10225000828B4FF6FF331A400B0642EA1342828309
:1022600070470022028B4FF67F731A400A430283A5
:1022700070470022028BC2F30E020B0642EA1342A1
:10228000028370470022828B4FF67F731A400A4305
:10229000828370470022828BC2F30E020B0642EA51
:1022A0001342828370470022028C4FF6FD731A405E
:1022B0000A43028470470022028C4FF6F7731A40DB
:1022C0000A43028470470022028C4FF6DF731A40E3
:1022D0000B0542EA1342028470470022028C4FF63B
:1022E0007F731A400B0542EA1342028470470022B2
:1022F000028C4FF6FF531A400B0642EA1342028447
:1023000070470022028C4FF2FF731A400B0642EA1C
:102310001342028470470022028C4DF6FF731A406C
:102320000B0742EA13420284704730B500230124B0
:102330008C40A3B2048CDD43ADB22C400484048CE9
:1023400002FA01F5ADB22C43048430BD30B5002350
:1023500004248C40A3B2048CDD43ADB22C40048431
:10236000048C02FA01F5ADB22C43048430BD70B583
:102370000023002403461846183301258D40ACB2D3
:10238000058CE643B6B23540058409B1082909D168
:1023900003EB61031D6825F070051D601D68154382
:1023A0001D600CE00D1FADB203EB65031D6825F445
:1023B000E0451D601D68160645EA16451D6070BDA6
:1023C00021B1028842F00202028004E002884FF646
:1023D000FD731A400280704721B1028842F0040266
:1023E000028004E002884FF6FB731A4002807047B7
:1023F00021B1828842F08002828004E082884FF618
:102400007F731A408280704702884FF6F7731A4034
:10241000028002880A430280704782884FF68F73D9
:102420001A40828082880A438280704702894FF670
:10243000F8731A40028102890A43028170470289B7
:102440004FF67F731A40028102890A430281704766
:102450008184704781857047818670470187704706
:1024600081877047A0F84010704702884FF6FF43FD
:102470001A40028002880A43028070470146888E13
:1024800070470146088F70470146888F70470146A4
:10249000B1F8400070470146888C70470146088DAE
:1024A000704702460020138A0B4201D0012000E051
:1024B00000207047CA430282704730B502460020B0
:1024C00000230024158A05EA0103958905EA010421
:1024D00013B10CB1012000E0002030BDCA430282DC
:1024E0007047000010B50446FB48844209D1012121
:1024F0008803FFF7FDF800214FF48040FFF7F8F85C
:1025000032E0F648844209D101214804FFF7FDF882
:1025100000214FF40030FFF7F8F825E0F04884423E
:1025200009D101218804FFF7F0F800214FF4802041
:10253000FFF7EBF818E0EB48844209D10121C80409
:10254000FFF7E3F800214FF40020FFF7DEF80BE07F
:10255000E548844208D101210805FFF7D6F800219B
:102560004FF48010FFF7D1F810BD2DE9F04786B089
:1025700004460D460026002700BFB146B246A88992
:1025800000B100BFA246268A4CF6FF700640E888DC
:1025900006432682A6894EF6F3100640A8882989AC
:1025A0000843698908430643A681A68A4FF6FF407F
:1025B0000640A8890643A68201A8FFF711F85446F1
:1025C000C548824501D1049F00E0039FA08910F413
:1025D000004F08D007EBC70000EB0710296849003F
:1025E000B0FBF1F807E007EBC70000EB0710296824
:1025F0008900B0FBF1F86420B8FBF0F00601300967
:10260000642101FB1089A08910F4004F09D0322108
:1026100001EBC9006421B0FBF1F000F007000643B4
:1026200008E0322101EB09106421B0FBF1F000F069
:102630000F000643268106B0BDE8F0874FF416511F
:10264000016000218180C18001810C214181002134
:102650008181704710B50022028A4FF2FF031A40B1
:102660000B884C8823438C882343CC8823431A430C
:10267000028210BD0021018041808180C1807047AD
:1026800021B1828942F40052828104E082894DF6B0
:10269000FF731A4082817047F0B5002400250026A0
:1026A0000023A1F510676A3F00D100BF0346C1F3C4
:1026B000421401F01F05012707FA05F6012C01D18C
:1026C0000C3304E0022C01D1103300E014331AB1B2
:1026D0001F6837431F6002E01F68B7431F60F0BDEB
:1026E00010B51AB1838A0B43838204E0838ACC43FA
:1026F000A4B22340838210BD028A4FF6F0731A40C1
:102700000282028A0A430282704782894FF2FF7373
:102710001A40828182890A438281704721B182896D
:1027200042F00202828104E082894FF6FD731A4072
:1027300082817047028A4FF6DF731A400282028A52
:102740000A430282704721B1028A42F48042028227
:1027500004E0028A4BF6FF731A4002827047C1F30D
:1027600008028280704701468888C0F308007047DD
:10277000818941F0010181817047028BD2B20283CD
:10278000028B42EA012202837047028B02F47F42ED
:102790000283028B0A430283704721B1828A42F08E
:1027A0002002828204E0828A4FF6DF731A4082821E
:1027B000704721B1828A42F01002828204E0828A4C
:1027C0004FF6EF731A408282704721B1828A42F03D
:1027D0000802828204E0828A4FF6F7731A408282EE
:1027E000704721B1828942F40042828103E08289EC
:1027F000C2F30E028281704721B1828A42F40062E4
:10280000828204E0828A4FF2FF731A40828270470C
:10281000828A4FF6FB731A408282828A0A4382823E
:10282000704721B1828A42F00202828204E0828AE9
:102830004FF6FD731A408282704702460020B1F5C0
:10284000007F00D100BF13880B4201D0012000E0BF
:102850000020704701F40072B2F5007F00D100BF84
:10286000CA430280704770B5024600230024002549
:102870000020A1F510666A3E00D100BFC1F34215E9
:1028800001F01F04012606FA04F4012D02D19689F5
:10289000344006E0022D02D1168A344001E0968AC7
:1028A00034400B12012606FA03F31688334014B1A4
:1028B0000BB1012000E0002070BD10B50022002304
:1028C000A1F510646A3C00D100BF0A1201249440B3
:1028D000A3B2DC43048010BD003801400044004036
:1028E00000480040004C00400050004008B5012165
:1028F0001C20FEF7E3FE6020ADF8000010208DF8EC
:10290000030003208DF8020069464D48FEF72CFCB9
:1029100060214B48FEF7D0FC4FF45040ADF800006A
:1029200010208DF8030003208DF802006946454809
:10293000FEF71AFC4FF450414248FEF7BDFCC020A0
:10294000ADF8000010208DF8030003208DF8020080
:1029500069463D48FEF708FCC0213B48FEF7ACFC49
:1029600008BD70B5044600251BE004FA05F010F020
:10297000800F03D001203549086002E00020334970
:102980000860002031490C310860012000F07FF818
:10299000012000F07CF801202D49C1F8BC01681C21
:1029A000C5B2082DE1DB70BD10B500202749083104
:1029B0000860012000F06BF8012000F068F80120A9
:1029C0002349C1F8B80110BD2DE9F04188B0044693
:1029D0000D469046002601A81EA18EC98EC0FFF7A5
:1029E00085FF0020ADF81A001CB9ADF818000126CB
:1029F0000FE00CE00A2094FBF0F100FB114006A967
:102A000021F816000A2094FBF0F4701CC6B2002CCA
:102A1000F0DC002708E006A830F8170001A9085CE0
:102A200005A9C855781CC7B2B742F4DB05A9485DB3
:102A3000FFF797FFFFF7B8FF08B0BDE8F08100008F
:102A400000080140000C014000100140B08121420B
:102A500000802142C0F9A4B0999282F880908883C6
:102A6000C6A1868E10B56FF00400FEF7E7F82A487D
:102A700000682A49B0FBF1F029490870084600783F
:102A80004FF47A7148432649891C088010BD244AB6
:102A9000127842434FF0E0235A6100229A611A46AD
:102AA000126942F001021A6100BF4FF0E022116981
:102AB00011F0010F02D011F4803FF6D04FF0E02268
:102AC000126922F001024FF0E0231A6100229A619C
:102AD0007047134A921C128842434FF0E0235A6118
:102AE00000229A611A46126942F001021A6100BF7F
:102AF0004FF0E022116911F0010F02D011F4803F74
:102B0000F6D04FF0E022126922F001024FF0E023EC
:102B10001A6100229A6170470000002000127A00BA
:102B20002A000020014600BF704700BF494A1288B2
:102B300012F0400FFAD0C2B2464B1B1D1A807047EC
:102B400010B586B00446012144F20400FEF7B6FD3C
:102B50004048FFF7C7FC4FF40070ADF814000320A5
:102B60008DF8160018208DF817004FF48060ADF82E
:102B7000140004208DF8170005A93748FEF7F4FA71
:102B800025208DF8000000208DF8010003208DF82D
:102B9000020001208DF803006846FEF702F8019458
:102BA0000020ADF80800ADF80A00ADF80C00ADF853
:102BB00010000C20ADF80E0001A92648FFF7D5FC47
:102BC000012240F225512348FFF766FD01212148EB
:102BD000FFF756FD06B010BD10B540F225511D4857
:102BE000FFF741FE002834D01A48FFF7BCFDC4B2FD
:102BF0001A48008810F4004F2BD11848008810F4B0
:102C0000804F0CD00A2C03D000201449088020E00B
:102C10001248008840F400401049088019E00D2C4B
:102C200006D10E48008840F480400C49088010E02E
:102C30000A480088C0F30D0009490C540748008871
:102C4000401C0649088008460088C72801DD00208E
:102C5000088010BD0038014000080140300000200D
:102C60003C00002000B587B001214FF40270FEF750
:102C700025FD01214802FEF73BFD00214FF40070C5
:102C8000FEF736FD4FF40040FEF77CFC0220ADF865
:102C9000040000208DF8070001A93148FEF764FA0E
:102CA0003048FDF7E9FF002002908DF80C008DF808
:102CB0000D004FF4602004900020059001208DF855
:102CC000180002A92748FDF7FEFF01212548FEF75D
:102CD00025F82448FEF744F800BF2248FEF745F8DF
:102CE0000028FAD11F48FEF74AF800BF1D48FEF73A
:102CF0004BF80028FAD101211A48FEF74FF807B027
:102D000000BD10B504460723092221461548FEF7E9
:102D100070F801211348FEF741F800BF0221114865
:102D2000FEF790F90028F9D00E48FEF7C7F810BD5D
:102D30002DE9F04104460D460026002708E0204614
:102D4000FFF7DFFF06440520FFF7C3FE781CC7B27C
:102D5000AF42F4DBB6FBF5F080B2BDE8F0810000D5
:102D6000000C01400024014008B501210420FEF7B9
:102D7000A5FC4FF48070ADF8000010208DF8030022
:102D800003208DF8020069460448FEF7EDF94FF480
:102D900080710248FEF790FA08BD0000000801406B
:102DA00008B501211C20FEF789FC4FF4B070ADF886
:102DB000000010208DF8030002208DF80200694603
:102DC0001748FEF7D1F94FF4B0711548FEF774FAC1
:102DD0004FF45040ADF8000010208DF803000220A1
:102DE0008DF8020069460F48FEF7BEF94FF45041D6
:102DF0000C48FEF761FA41F2CE00ADF80000102059
:102E00008DF8030002208DF8020069460648FEF79F
:102E1000ABF941F2CE010448FEF74EFA08BD0000BE
:102E200000080140000C0140001001407FB504463D
:102E30000D4601210846FEF74EFCADF80840ADF8FE
:102E400004500020ADF80A00ADF8060001A94FF0CB
:102E50008040FEF769FD012211469007FFF7B0F8A8
:102E60001C208DF8000000208DF8010003208DF853
:102E7000020001208DF803006846FDF792FE012153
:102E80008807FFF778F87FBD10B501218807FFF7A5
:102E900014FB58B101218807FFF720FB6548006843
:102EA00008B9012000E000206249086010BD70B53B
:102EB00088B004460D46164601210220FEF70BFCA1
:102EC000ADF81840ADF814600020ADF81A00ADF868
:102ED000160005A95848FEF727FD0122114656485D
:102EE000FFF76EF81D208DF8100000208DF81100FE
:102EF00003208DF8120001208DF8130004A8FDF7BF
:102F000050FE0120ADF80200ADF806500220ADF8E9
:102F10000800C001ADF80C0069464748FEF741FDC6
:102F200000214548FFF755F9012202214248FFF7E9
:102F300047F801214048FFF71EF808B070BD10B5F2
:102F400001213D48FFF7B9FAA8B101213A48FFF73E
:102F5000C5FA3A48006808B9012000E00020374966
:102F600008603748D0F8840108B9012000E000204B
:102F70003249091F086002212F48FFF79EFA68B105
:102F800002212D48FFF7AAFA2C48001F006808B953
:102F9000012000E000202949091F086010BD7FB50D
:102FA00004460D4601210420FEF795FBADF80840CC
:102FB000ADF804500020ADF80A00ADF8060001A9F4
:102FC0002048FEF7B1FC012211461E48FEF7F8FF2B
:102FD0001E208DF8000000208DF8010003208DF8E0
:102FE000020001208DF803006846FDF7DAFD01219B
:102FF0001448FEF7C0FF7FBD10B501211148FFF74F
:103000005CFAB0B101210F48FFF768FA0E4800885A
:10301000002804DD0C480088401E0B4908800B483E
:103020000088401C0949088009480088401C08495C
:10303000088010BDA0012142000400408801224206
:103040000000224200080040140000203800002048
:103050003A000020704710B5203AC0F00B80B1E86C
:103060001850203AA0E81850B1E81850A0E81850BD
:10307000BFF4F5AF5FEA027C24BFB1E81850A0E8C6
:10308000185044BF18C918C0BDE810405FEA827CE0
:1030900024BF51F8043B40F8043B08BF7047D207F7
:1030A00028BF31F8023B48BF11F8012B28BF20F898
:1030B000023B48BF00F8012B7047704770477047CC
:1030C000704710B500F008F8006810BD10B5044650
:1030D00000F002F8046010BD01487047704700001E
:1030E0000401002000487047040100207546FFF7E6
:1030F000F9FFAE4605006946534620F007008546B5
:1031000018B020B5FDF736FDBDE820404FF00006B1
:103110004FF000074FF000084FF0000B21F00701BF
:10312000AC46ACE8C009ACE8C009ACE8C009ACE802
:10313000C0098D4670470446AFF300802046FDF776
:1031400040F82DE9F041491E0D46044600EBC1014F
:1031500003C916461F4609E03B46324601F0C4F853
:103160006D1E04EBC5020CCA00F00AFD35F0060224
:10317000F2D1022D23D0042D11D0062D30D13B46A3
:10318000324601F0B1F8D4E90A2300F0F9FC3B46DD
:10319000324601F0A9F8D4E9082300F0F1FC3B46DF
:1031A000324601F0A1F8D4E9062300F0E9FC3B46E1
:1031B000324601F099F8D4E9042300F0E1FC3B46E3
:1031C000324601F091F8D4E9022300F0D9FC3B46E5
:1031D000324601F089F80CCCBDE8F04100F0D0BCDB
:1031E000BDE8F0810A46194662F31E0170470000EF
:1031F0002DE9FF4DA8B0DDE9296E2B9A804626F017
:10320000004122F00043FF482791814209DC02D1AE
:10321000B8F1000F05D1834203DC0BD1BEF1000FE2
:1032200008D013462A9A314640462CB0BDE8F04DEE
:1032300000F0A6BC26F0004C53EA0E004CEA080C45
:103240000FF2C43A0ED1BCF1000F03D10120FFF7F9
:103250003DFF05E0EB48814202D1B8F1000FF5D007
:103260005146D3E00024002E29DAE648834226DACC
:10327000E748834201DB022421E0E64883421EDB6B
:10328000E54800EB235014280ADDC0F134052EFA7E
:1032900005F707FA05F0704511D107F001000CE0C1
:1032A000BEF1000F0BD1C0F1140523FA05F000FAAE
:1032B00005F59D4203D100F00100C0F102040FF2B8
:1032C0005C3BBCF1000F13D1002A11DA0EB1022CC5
:1032D00003D10120FFF7FAFE8EE0012C03D101207B
:1032E000FFF7F4FE91E00120FFF7F0FECDA18DE0A5
:1032F0000FF2383C0120BEF1000F65D1C14DAB4249
:1033000024D1A94222DAC34B5B420B4453EA08039F
:10331000E9D0002E07DABF4B994200DA0020B0EB6B
:10332000D27FE0D180E0BB48814206DB002A0ADB85
:103330002A9811462CB0BDE8F08D002A03DA82F0FD
:1033400000412A98F6E7BB4979445FE0B14FBB42A0
:1033500027D1002A22DA61B9B8F1000F01D1334632
:1033600003E00220FFF7B2FE299B4246584603C8FD
:103370008CE0A94207D1B8F1000F04D1DCE90001CB
:103380003346424682E0A94208DADAE900013346D0
:1033900042462CB0BDE8F04D00F01ABD4046314623
:1033A000C8E7B2F1804F03D13346424631467BE352
:1033B000A14DAA4208D1002E06DB314640462CB072
:1033C000BDE8F04D00F0B2BB0D46CDF87880B8F105
:1033D000000F3ED10FF2642E39B9022C24D01EB357
:1033E000012C21D1002E1FDA1AE0864FB9421ED1DE
:1033F000002E03DD002A17DB594607E017DA002A02
:103400000ADB022CF8D0012C02D18EA103C991E76E
:10341000002C3FF468AF0AE0022C05D0012C02D149
:10342000DEE9000186E714B9DCE9000182E7794FA3
:10343000B9420ED1002E3FF70CAF01DA002CE8D0D4
:10344000022C01D04FF0FF302CB0BDE8F04D00F061
:10345000F7BE00EBE67026902043DAD07B4883422B
:1034600077DD6C487A4D401EAB4204DD814204DDBD
:10347000431C994218DA814213DA002A0BDA02203F
:10348000FFF724FEDBE90023194610462CB0BDE807
:10349000F04DFFF7A7BE0220FFF718FEDAE9002380
:1034A00048E25C48814202DD002AF4DDE7E7DAE920
:1034B00000233146404601F0EDF80F466FF001025F
:1034C0000E9001F0E3FC63A20CCA01F035F83B4614
:1034D0000E9A00F009FF61A20CCA01F02DF80E9AB5
:1034E00005460E463B463946104600F0FDFE334683
:1034F0002A4600F0F9FE05465AA00CC80E46394689
:103500000E9800F0F1FE0C9058A00CC88846314689
:10351000284600F0E9FE054656A00CC80E4639467E
:103520000E9800F0E1FE33462A4601F0B3F8074654
:103530000E460B46024641460C9800F021FB0D4614
:10354000002043460C9A01F0A5F833463A4687E13D
:10355000FFE70020B1F5801F07DA352229461E98C3
:1035600001F094FC1E906FF0340000EB2157C1F382
:1035700013002849A7F2FF3740EA01063F49884275
:1035800001DC002508E03E49884201DA012503E01C
:1035900000257F1CA6F580163A48784400EBC5004C
:1035A000436825930268314624921E9801F072F810
:1035B000CDE90C01DDE9242331461E9800F0E0FA44
:1035C0000B460246DAE9000100F002FC0B46024617
:1035D000CDE90A01DDE90C0100F086FE10902A48D1
:1035E00088467844006804904FF0005040EA660036
:1035F00000EB854000F50020DDE92423059001461D
:10360000049843E00000F07F000000000000F03F5D
:10361000000040430000F03F01FCFFFF00000000FD
:103620000000F07F010000000000F87F00000000B3
:1036300000000000A41E00000000E03F00000000A9
:1036400000000080000000000000F0FF0000E041EA
:103650000000F043555555555555D53F0000000025
:103660000000E03F000000604715F73FFE822B6539
:103670004715F73F44DF5DF80BAE543E8E980300CC
:103680007AB60B00CA1B00000A1C000001F002F809
:1036900033461E9A00F050FF0B460246414600207A
:1036A00000F022FE0090DDE904230E464146002092
:1036B00000F01AFEDDE90C2300F03EFF3346009ACD
:1036C00000F0E8FFDDE90A2300F00EFECDE9060177
:1036D000109A43464146104600F006FE0246089006
:1036E000F4480E460B4606217844FFF72AFDCDE943
:1036F0000001089A33463146104600F0F5FDDDE939
:10370000002300F0F1FD0E46129043464146002092
:10371000109A00F035FADDE9062300F0E5FD3346A6
:10372000129A00F02DFACDE91201002243464146DB
:10373000104600F0D9FDE0A6CDE90801D6E9002346
:1037400000F01EFADDE9122300F01AFA05910CCE02
:10375000002000F09FFFDDE9082300F09BFFDDE97A
:10376000122300F0E9FE0E46029000224146104668
:10377000059B00F0B9FDCDE90C0143463146109A96
:10378000029800F0B1FD8046DDE905300E460022CA
:10379000079900F0A9FD3346424600F0F1F9804652
:1037A0000E460B460246DDE90C0100F0E9F9DDE9C1
:1037B0000C231991002000F06DFF3346424600F0C3
:1037C000BBFE8046BEA00CC80E460020199900F032
:1037D0008BFDCDE91C01BCA00CC83146404600F071
:1037E00083FD8046BAA00CC80E460020199900F04F
:1037F0007BFD3346424600F0C3F9B74A7A4402EBF8
:10380000C5020CCA00F0BCF91A908846384600F090
:1038100017FD07460E46DDE91C0143461A9A00F0E3
:10382000AFF9AD4A7A44383A02EBC50253682393A4
:103830001268229200F0A4F933463A4600F0A0F94B
:103840000D4633463A46002000F024FFDDE92223EE
:1038500000F020FFDDE91C2300F01CFF43461A9A0C
:1038600000F06AFEAFF26022D2E90087269A641E59
:10387000224302D199A2D2E900872B9C0B46024633
:1038800021462A9800F030FD82460E46DDE92A01E5
:103890002346002200F0FEFE2B46002200F024FD0D
:1038A0003346524600F06CF9CDE9160100222B4652
:1038B0002146104600F018FD82460E460B46024691
:1038C000DDE9160100F05CF9864A0C4691421ADBEC
:1038D00052422244024304D00220FFF7F7FB3B464A
:1038E00043E53346524600F0D5FE05467EA00991D9
:1038F0000CC8DDE9160100F043F92A46099B00F0E7
:10390000D7FDE9D319E07A4B24F000429A4214D350
:10391000784A2244024308D13346524600F0BAFEA8
:10392000DDE9162300F0C4FD07D80220FFF7CEFB27
:103930003B4642467048784419E524F000406F4900
:103940006F4A002501EB2051904220DD491C4FF4C5
:103950008010C8400119C1F30A50674AA0F2FF3035
:103960007A442A3A674B1268C34021EA0303C1F341
:10397000130141F48015C0F11400C540002C00DA99
:103980006D423146504600F085FE82460E46DDE926
:1039900016013346524600F0F3F85BA00CC80C4603
:1039A000002000F0A1FCCDE90C0159A00CC8214673
:1039B000002000F099FC8B46089033465246214681
:1039C000002000F067FEDDE9162300F0B5FD52A2ED
:1039D0000CCA00F089FC5B46089A00F0D1F8044656
:1039E0000E460B460246DDE90C0100F0C9F8CDE9B0
:1039F0002001DDE90C2300F04DFE3346224600F0A5
:103A00009BFDDDE9202383468A461946104600F0D7
:103A10006BFC0646024642480C460B46052178449C
:103A2000FFF78FFB2346324600F05EFCDDE92023E2
:103A300000F082FD06461591DDE9200153465A4605
:103A400000F052FC53465A4600F09AF8089035A010
:103A50000CC88B463046159900F01CFE82460C4679
:103A6000DDE920013246159B00F03EFC234652461C
:103A700000F0AEF95B46089A00F00CFEDDE9202369
:103A800000F008FEAFF280420CCA00F055FD0B4674
:103A900001EB05510A15002A03DC2A46194601F0FC
:103AA000F5F90B460246394640462CB0BDE8F04DCC
:103AB00000F01ABCAC1A0000000000000000084032
:103AC000000000E009C7EE3FFD033ADC09C7EE3F06
:103AD000F5015B14E02F3EBE8819000000000000D5
:103AE0000000F0BF00009040FE822B654715973C18
:103AF00000CC904000346F3FB618000001FCFFFF7F
:103B00000000E03FFFFF0F0000000000432EE63FF3
:103B1000396CA80C615C20BEEF39FAFE422EE63FFC
:103B2000A6170000000000000000004070B504006F
:103B30000D4601D0012200E000220A430B4B22F087
:103B400000429A1AD20F0AD109A20CCA00F094FBC3
:103B500005D20120FFF7BAFA07A103C970BD2946B3
:103B60002046BDE8704000F0F3BC00000000F07F8C
:103B70000000000000000000010000000000F87FCD
:103B800010B591EA030F48BF83F0004300F18A8526
:103B9000841A71EB030E05D2121943EB0E03001BBE
:103BA00061EB0E01DFF880C14FEA1154A4EB135E04
:103BB0001CEA430F18BF9CEA445F7DD023EA0C0344
:103BC00021EA045143F48013DEF1200C38D322FAA9
:103BD0000EFC10EB0C0023FA0EFC41EB0C01CEF1B5
:103BE000200C03FA0CFC10EB0C0051F10001B1F5B4
:103BF000801FCEF1200C38D201EB0451BDE81040FB
:103C000012FA0CF258BF7047401C38BF5FEA4202FC
:103C100018BF7047002814BF20F0010041F10001D7
:103C20004FEA410313F5001F38BF704728BFB1F1B9
:103C3000C0413E494FF0000048BF41F0004170478D
:103C4000012A43EB0302AEF1200EDEF11F0C32BF5E
:103C50004FF0000C23FA0EF310EB030041EB04517C
:103C6000B4EB115FCAD0A1EB045101F580114908F2
:103C700001EB0451BDE810405FEA30000CD350F175
:103C8000000038BF12FA0CFC06D1C3E7401C38BF55
:103C90005FEA4202C4D1BDE74FEA410313F5001FBA
:103CA00038BF704728BFB1F1C04120494FF0000034
:103CB00048BF41F0004170479CEA445F08D0BDE82E
:103CC000104011EA5C0F04BF01F000410020704772
:103CD000012841EB0104012A43EB030E644598BF20
:103CE000E645DFF84CC0BDE8104000F22580AFF398
:103CF0000080012841EB0100012A43EB03029042BE
:103D000008D010F5001F04BF0020704719464FF07F
:103D10000000704791EA030F4FF0000058BF704752
:103D200004494FF0000070470000E0FF0000F07F02
:103D3000110000040000F87F02494FF0000001F07C
:103D400073B800000000F87F02494FF0000001F056
:103D50006BB800000000F87F00B54FF4001E1EEBAA
:103D6000410F08BF002898BF1EEB430F08BF002A71
:103D700026D85DF804EBAFF3008051EA030C06D4BB
:103D8000994208BF904210D6EFF3008070478B42F3
:103D900008BF8242EFF3008020F0104038BF40F0AF
:103DA000004080F3008878BF70474FF0010C38BFA7
:103DB000BCF1020F68BFBCF1000FEFF30080704749
:103DC0005DF804EB1CF4502F3FF4B6AF01F08EB851
:103DD00070B5DFF8ECC33CEA111418BF3CEA1314C9
:103DE00000F09B8081EA03050CEA111444EAD574C3
:103DF0001CEA131518BF11EA0C1F00F074804FEA7B
:103E0000C1214FEAC32341EA505143EA5253A4EB84
:103E1000050404F17F7441F0004143F000434FEA90
:103E2000C0204FEAC22200F0A9F846054FEAD02090
:103E300003EB244340EA41504FEAD12101EB035206
:103E400082EAC47116D05FEA460E38BF4FF0404692
:103E500010D314BF00234FF0004350F1000041F194
:103E6000000110EAD37F4FF0804620EAD37018BFDC
:103E70004FF0404691EAC47FDFF848E316D412EAD7
:103E80000E0F18BF3EEA010E10D070BDE50754BFFB
:103E90001EF4000F1EF4800F0ABF4FF080464FF053
:103EA000404610F1010041F10001E3E7B4F1806FF9
:103EB000DEBF01F1C04101F00041002000DC70BD17
:103EC000A8BFA1F1C04146F0140CA8BF4CF0805C23
:103ED000BDE870406FF0000041EA500181EA103106
:103EE0004FF00000704711EA0C1F00D00AE013EAFF
:103EF0000C1F00F03D804FF0000081EA030101F04B
:103F0000004170BD6FF0000081EA030141EA5001F9
:103F100081EA10314FF0000070BD4FEA410EBEEB58
:103F20004C1F4FEA430508BF002898BFB5EB4C1F54
:103F300008BF002ABDE87040DFF88CC23FF6FCAE37
:103F4000AFF300804FF4001C1CEB410F09D11CEBB8
:103F5000430F0FD04B4021F0004148BF41F00041DA
:103F600070474FF0000081EA030303F000417047FF
:103F7000BDE870404FF0000094497047E0B5054639
:103F800010B40C460FF238114FEA430C4FF0010EFB
:103F90004FEA9C6C51F82CC04FF00001ACFB026062
:103FA0004FF00006ECFB0301001841EB0101301A51
:103FB00066EB0101E1FB0C6C4FF00001ACFB026011
:103FC0004FF00006ECFB0301001841EB0101301A31
:103FD00066EB0101E1FB0C6C4FF00001ACFB0560EE
:103FE000ECFB0401A2FB0167E3FB006E17EB0E077D
:103FF0004FF0000EE3FB017E4EF1000EB6197F413B
:104000004EEB0E0E764275EB070764EB0E0EECFBE3
:104010000E01ACFB07E64FF0000E801941F10001E4
:10402000A2FB0067B619E2FB017EE3FB007E7F4145
:1040300003FB01EE4EEB0E0E76424FF0000676EBE0
:10404000070765EB0E0EACFB0E674FF0000E4FEA54
:10405000857C4FEA9505C01941F1000145EA847558
:1040600049084FEA3000A2FB00677642E2FB017E7E
:10407000E3FB007E7CEB070703FB01EE65EB0E0E16
:10408000B51A77EB03047EF1000E24BF2E462746B7
:1040900050F1000041F10001012E38BF012F4041D5
:1040A00041EB010111F0004F18BF022301D0F0BC19
:1040B00000BDF0BC4FF00103001841EB010100BD51
:1040C000FCC00FFC830F3EF85F8D89F4F0F0F0F038
:1040D000B50373EDEAA00EEA48B4C2E6E3388EE316
:1040E0001C3870E0A6C867DDA70D74DAE53594D7F3
:1040F000037BC7D4D2200DD2A87464CFCCCCCCCC57
:10410000E68745CA7C0CCEC77BC865C5C3300CC3E7
:10411000C0C0C0C00BFA82BE0B6452BCA28B2EBAC8
:10412000E00217B8B6600BB6B4400BB4C84216B282
:10413000020B2CB05C414CAE849176ACAAAAAAAA20
:10414000573FE8A839052FA702B57EA53D0AD7A39A
:104150002BC337A2A0A0A0A0E765119F9DD8899D81
:104160009CC0099CD9E7909A511A1F99ED25B497E4
:104170006CDA4F964F09F294C4859A93922449922F
:1041800009BCFD90EE23B88F6D35788E08CB3D8D40
:104190008CC0088CFBF2D88A8940AE8988888888D0
:1041A0005FAB67877D8A4B8653083485420821843C
:1041B000976E12838220088208040281000000802A
:1041C0000000FF070000F07F140000040000F87FEB
:1041D00051EA030C17D41CF5801F58BFBCF5801F93
:1041E00000F10680994218BF704708BF904270479F
:1041F00007D711F5801F58BF13F5801F19D49942B6
:104200007047894270471CF5801F08D5BCF5801F98
:10421000F7D58B4218BF704708BF824270474FF4F2
:10422000001C1CEB410F38BF1CEB430F01D28B422B
:104230007047DFF808C0FFF78FBD000019001204B7
:1042400010F0004314BF4142014643F08043B1FAED
:1042500081FC03F1F87311FA0CF1A3EB0C534FEA54
:10426000415008BF704703EBE12170474FF0804396
:104270000146FFF7ECBF000051EA030C17D41CF510
:10428000801F58BFBCF5801F00F10680994218BFFF
:10429000704708BF9042704707D711F5801F58BF7D
:1042A00013F5801F19D499427047894270471CF555
:1042B000801F08D5BCF5801FF7D58B4218BF70470B
:1042C00008BF824270474FF4001C1CEB410F38BFFF
:1042D0001CEB430F01D28B427047DFF808C0FFF799
:1042E0003BBD000019001604DFF8B4C170B53CEA0C
:1042F000111E18BF3CEA131E00F0A68081EA0305D8
:104300000CEA111E4EEAD57E1CEA131518BF11EAFD
:104310000C1F00F08F80AE4421EA4C1123EA4C13AD
:10432000AEF17F7E41F4801143F48013A1FB024C77
:10433000A0FB0365361955EB0C05A1FB034C4CF1B2
:104340000003A0FB021C16EB0C06654153F10003B1
:10435000094218BF46F001064FF0140CB3F5007F78
:104360004CF1000CCCF1200425FA0CF203FA04F114
:1043700041EA020105FA04F026FA0CF240EA0200D2
:104380006FF0030242EB2E4216FA04F401EB0255E1
:1043900085EACE7115D05FEA440C38BF4FF0404437
:1043A0000FD308BF43F0004350F1000041F100017A
:1043B00010EAD37F4FF0804420EAD37018BF4FF04B
:1043C000404415F0004FDFF8DCC017D415EA0C0F9D
:1043D00018BF3CEA010C11D070BD5FEACE7454BF27
:1043E0001CF4000F1CF4800F0ABF4FF080444FF004
:1043F000404410F1010041F10001E2E7BEF1806F9D
:10440000A2BFA1F1C04144F0130C4CF0805CBDE8A8
:10441000704006DA4FF0000001F1C04101F00041A8
:1044200070476FF0000041EA500181EA10314FF00F
:10443000000070474FEACE714FF0000070BD4FEAA8
:10444000CE714FF0000070BD4FEA4105B5EB4C1F37
:104450004FEA430608BF002898BFB6EB4C1F08BFC1
:10446000002ABDE87040DFF840C03FF665ACAFF30E
:1044700000804FF4001CBCEB410F98BFBCEB430F16
:104480000AD84FF0000081EA030101F0004141F039
:10449000FE4141F47001704704494FF0000070473D
:1044A0000000FF070000F07F130000040000F87F09
:1044B00053EA010C17D41CF5801F58BFBCF5801FB0
:1044C00000F106808B4218BF704708BF82427047D8
:1044D00007D713F5801F58BF11F5801F19D48B42E1
:1044E00070479B4270471CF5801F08D5BCF5801FA4
:1044F000F7D5994218BF704708BF904270474FF4F4
:10450000001C1CEB430F38BF1CEB410F01D299423A
:10451000704783EA010182EA000081EA030380EA2E
:104520000202DFF810C083EA010182EA0000FFF70F
:1045300013BC00001900160491EA030F10B581F0B6
:1045400000413FF525AB83F0004300F0ABB800001D
:104550004FF0E04C4CF07F6C70B511EA0C0F00F09E
:1045600078803CEA010E00F07D8011F0004F40F0B1
:1045700087804FEA115C21EA0C5141F480110CF163
:10458000FD0C5FEA5C0C0CF5C07C02D3400041EBF3
:1045900001014FF000034FF080424FEA812141EAD0
:1045A00090514FEA8020A1F180414FF0805E8C1A3B
:1045B00022BFB4EB0E04214602EB4E02400041EB59
:1045C00001015FEA5E0EF2D171EB020407D3B0F194
:1045D000004574F1000422BF21462846521C4000C9
:1045E00041EB01014FF0804EC51A71EB020408D374
:1045F000B5EB0E0574F1000422BF2146284603EBFB
:104600004E03400041EB01014FEA5E0EBEF1800F08
:10461000EAD151EA000418BF0224980A4FEA922115
:104620005FEA340440EA825001EB0C5100D170BDC6
:10463000640050F10000244241F1000108BF20F065
:10464000010070BDDEF5800E50F1000041F1000167
:1046500070BD50EA013C00D170BD01F000414FF047
:10466000000070BDBDE8704050EA013CDFF81CC09E
:104670007FF46AABAFF30080094258BF704701E096
:10468000BDE870404FF0000001497047170000047A
:104690000000F87F10B591EA030F48BF83F0004394
:1046A0003FF576AA841A71EB030E07D212198EF029
:1046B000004E43EB0E03001B61EB0E01DFF810C24E
:1046C0004FEA1154A4EB135E1CEA430F18BF9CEA97
:1046D000445F00F0C58023EA6C03524221EA045192
:1046E000C3EB6C0338BF5B1EDEF1200C29D322FA2A
:1046F0000EFC10EB0C0043FA0EFC41EB0C01CEF16A
:10470000200C03FA0CFC10EB0C0051F10001CEF16F
:10471000200C2DD401EB0451BDE8104012FA0CF22C
:104720004FF0120C4CF0804C58BF7047401C1CBF1F
:10473000B2F1004F704700280CBF491C20F0010067
:10474000704712EB020C43EB030218BF4FF0010C51
:104750004CEA4202AEF1200EDEF11E0C63D943FAA0
:104760000EFC10EB0C0051F1FF31CEF11E0CD1D537
:104770000CF1010C12FA0CFC404141EB010101EB80
:10478000445E5FEA5E5E10D901EB0451BDE8104063
:1047900010EBDC7038BFBCF1004F18BF7047002829
:1047A0000CBF491C20F0010070473FD211F50011E9
:1047B00008BF002801D1BDE810403FD04FEAD42EF9
:1047C00024F40064B1FA81F2202AA4F1020404BFA7
:1047D000B0FA80F3D218A2F10B02B2F12003A4EBDD
:1047E00002040CD2C2F1200301FA02F120FA03F311
:1047F00041EA030100FA02F0C2F1200303E000FAEB
:1048000003F14FF0000001EBCE71002C01EB0451DD
:10481000BDE81040A8BF704701F1C0414FF0000053
:1048200001F00041704701EB045110BD491001EB4C
:104830000451BDE810404FEA300002E04FF00001A3
:1048400070474FF0120C4A0008BF0042F6D0B2F594
:10485000001F28BF704701F000414FF00000704773
:104860009CEA445F07D0BDE8104011EA5C0F04BF2A
:10487000002100207047012841EB0104012A43EB8D
:10488000030E644598BFE645DFF848C0BDE8104018
:104890003FF652AAAFF30080012841EB0100012A44
:1048A00043EB0302904209D010F5001F04BF002023
:1048B000704783F000414FF00000704791EA030F0A
:1048C0004FF0000048BF704703494FF000007047A9
:1048D0000000E0FF120000040000F87F094248BF1A
:1048E0004CF4803C4FF4C0634FEA115203F10103D2
:1048F00021EA025122F400629A1A48BF6FF0FE02C8
:1049000041F48011352A3CD830D0152A1ED3203AE4
:104910000CD90028C2F1200321FA02F001FA03F2B7
:1049200018BF42F001024FF0000130E0C2F1000375
:1049300002F1200201FA03F120FA02F241EA020137
:1049400000FA03F208464FF0000120E0C2F1200314
:1049500010B400FA03F401FA03F320FA02F021FA8A
:1049600002F1224610BC43EA000010E050EA013296
:104970004FF000004FF000014FF0004218BF521CF2
:1049800005E04FF001024FF000014FF000001CF471
:10499000803F2CF4803C18BF41F00041124208BF18
:1049A0007047520003D303D0401C41F1000170470F
:1049B0005FEAAC72F8D4FAD1401C41F1000120F05A
:1049C0000100F4E770477047014800F02DBA00007D
:1049D0000000C07F014800F027BA00000000C07F3F
:1049E0004FF47F0C1CEAD0121EBF1CEAD11392EACE
:1049F0000C0F93EA0C0F00F0A58090EA010F48BF5E
:104A000042F4807240F4000C41F400002CF07F412D
:104A100020F07F4000B58142A2EB03020FF2401C60
:104A2000ACEB504EC0F100009EF800E04FEA4E0E95
:104A300000FB0EFC38BF49004FEA2C1C02F5FA02BD
:104A40000CFB0EF34FEACE1E4FEA112C4FEAC121A8
:104A50000EEB635E0EFB0CFC4FEA1C5300FB0311D4
:104A60004FEA112C4FEA01310EFB0CFC02F4807E60
:104A700042EB22424FEADC4C00FB0C11C14228BF42
:104A800009184CEB0333012924BF4EF0020E4EF0FF
:104A9000804E10EB410F24BF4EF0010E4EF0804EC1
:104AA00008BF4EF0040E4EF008015DF804EB43EB36
:104AB000C25018BFB2F57C0F38BF704741EAC071D1
:104AC00008BF20F00100B2F57C0F38BF704729D530
:104AD00012F0F00F1CBF00F1C04000F00040704722
:104AE000008182838485868788898B8C8D8E8F91C7
:104AF0009293959697999A9C9D9FA0A2A3A5A7A8EB
:104B0000AAACAEB0B2B3B5B7B9BCBEC0C2C5C7C916
:104B1000CCCED1D4D7D9DCDFE2E6E9ECF0F3F7FA7A
:104B2000FE0000004FEA400C0CF1807CBCF17E4F8F
:104B300028BF7047B0F1C0404FF07F404CBF4010DD
:104B40004008704790EA010F0CEAD11348BF42F4C5
:104B50008072624538BF634507D213F47F0F23D0BC
:104B600080EA010000F0004070474FF0807C1CEBB1
:104B7000400F98BF1CEB410FDFF840C03FF624AF59
:104B8000AFF300804FF0807C1CEB400F02BF1CEBAA
:104B9000410F0B4870471CEB410F0CBF002020F069
:104BA000004040EAC250704712F47F0F04BF04482F
:104BB000704742F0FF004FEAC05070470400000405
:104BC0000000C07FC2154FEA002318BF43F0004326
:104BD00005D4D2F19E020AD323FA02F070474FEABD
:104BE0004001B1F1FE4F02D24FF000007047DFF8F4
:104BF00028C04FEA4001B1F17F4F88BF4CF4803CA0
:104C00003FF6E8AE1CBF6FEAE0707047AFF300807C
:104C10006FEAE070704700006800020410F0004284
:104C200018BF404242F08042B0FA80F18840A2EBC7
:104C3000C15202F1786208BF7047410642EB202062
:104C400018BF5FF0806C28BF20F0010070470000A3
:104C50004FF47F0C1CEAD0121EBF1CEAD11392EA5B
:104C60000C0F93EA0C0F00F04A8090EA010F48BF46
:104C700042F480724FF0004C4CEA00204CEA0121D3
:104C80001A44A0FB01C3A2F50002BCF1000F18BF3B
:104C900043F0010302F4807CB3F1004F38BF5B00A6
:104CA00042EB2242180A40EBC25028BF13F07F0F9C
:104CB00018BFB2F57C0F38BF704708BF20F0010065
:104CC000B2F57C0F38BF70470BD582F0FF0212F5AA
:104CD000803FC8BF704700F1C040D8BF00F000401F
:104CE000704700F5000C5FEA4C0C48BF7047B0F10C
:104CF000C0404FF07F404CBF40104008704790EAE2
:104D0000010F0CEAD11348BF42F48072624538BFEC
:104D1000634504D280EA010000F0004070474FF084
:104D2000807C1CEB400F98BF1CEB410F4FF0030C35
:104D30004CF0806C3FF648AEAFF3008012F47F0F6A
:104D40001FBF13F47F0F42F0FF02D00570470148E8
:104D5000704700000000C07F10B412F47F0F4FEACC
:104D600000204FEA012110D1B0FA80F400FA04F0DB
:104D7000A2EB044213F47F0F02F5803218BF41F01A
:104D8000004100D010BC18BF604740F00040B1FAAD
:104D900081F401FA04F1A3EB044310BC03F5803362
:104DA000604700F0004343EAD05323F48073C3F11B
:104DB000C10323F0004117291FD8C3F1200310FAC3
:104DC00003F1C3F1200320F07F4040F4000020FAFB
:104DD00003F003F0004340EA03000DD00B465900F6
:104DE00009D318BF401C06D17FEAE27398BF401C6C
:104DF00038BF20F0010070477047182903EB91235A
:104E000018BF6FF00041013168BF03F0004009D6C0
:104E1000400203F0004000F1010004BF12F0004F17
:104E200020F00100704770470CF00F03092B08BFFA
:104E3000082000F05B800A2B0BD0082B18BF7047AE
:104E400008BF1CF0400F0AD04FF000004FF00001E7
:104E500070471CF0400F18BF4FF0004070471CF027
:104E6000100F08D020F0704300F07F4242EAD301D7
:104E70004FEA4370704700F0604021F07F4242EA01
:104E8000000201F07F4040EA727070474FF0FF0C63
:104E90004CF4E06C1CEA11531CBF9CEA030C9445D3
:104EA000C2BFDA4201EB02517047002B0DD0BCF1BA
:104EB000000F0FD0002A01F00041A4BF41F0E041F3
:104EC00041F07F614FF00000704701F000414FF06A
:104ED0000000704750EA01334FF09B0C18BF4CF0B4
:104EE000806C7EF431AFAFF3008070471CF4801FFC
:104EF00011D01CF4E02F03D06FEACC314900704789
:104F00004FF04050EFF3008222F0704242EA00027C
:104F100082F3008870474FF00000704706011501CA
:104F2000260137014A015D01710188019F01B80125
:104F3000D201EE0100000200040005000700090094
:104F40000B00000001000200040008001000200017
:104F500040000000170004001800040019000300BE
:104F600019000300190004001900030019000400CF
:104F70001A000400190004001800030018000300C0
:104F800017000400180004001900030019000300B2
:104F900017000400160004001500030016000200AC
:104FA000160003001700040016000400150004009A
:104FB0001500030015000400150004001F00040084
:104FC0001F0003001B0004001B0003001F0004005F
:104FD0001B0004001A000400190003001A0004005A
:104FE0001900040018000300180004001900040050
:104FF0001A00040019000400190001001F0003003A
:105000001F0002001A000400190004001900030028
:105010001A00040019000400190002001A0003001D
:105020001A00030019000400150003001600040014
:105030001700660016000300150067001500040045
:1050400015000400170003001700040017000400F7
:105050001600040016000300160067001600040086
:1050600016000300160003001B0004001A0067006E
:10507000000000001A000D001B0003001F0070005C
:105080001B0003001F000200210002001B000000A3
:1050900017000300170003001A0070001900030036
:1050A0001A0002001F00020019001500170003007B
:1050B00017000300180070001700030018000D000F
:1050C0001F006600170015001F0003001F000300EB
:1050D0001F0003001B00CA001800670018000C0026
:1050E0001B0002001B0015001A0003001B00030038
:1050F0001F0066001B0003001F00020021000200C9
:105100001B00150017000300170003001A006600BB
:10511000190003001A0002001F0002001900140009
:1051200017000300180002001F0003001B0003000B
:105130001B0002001F0002002000030020000300EB
:10514000210003001F0016001F000C001B000300BD
:105150001A0003001A0003001B0066001900020079
:105160001A00020000000000000000000000F03FF4
:10517000000000000000F83F0000000000000000F8
:105180000000004003B8E23F000000000000000003
:1051900006D0CF43EBFD4C3E033333333333E33F91
:1051A000FFAB6FDBB66DDB3F4D268F515555D53FBD
:1051B00001411DA96074D13F65DBC9934A86CD3F8B
:1051C000EF4E454A287ECA3F3E5555555555C53F79
:1051D00093BDBE166CC166BF2CDE25AF6A56113F6B
:1051E000F16BD2C541BDBBBED0A4BE726937663E6D
:1051F000000000000000000018520008000000201D
:105200003C0000006C010008545200083C000020E3
:105210002C0700008801000800A24A0400000000DA
:105220000000000001020304060708090000000056
:105230000000010203040102030406070809020436
:105240000608000000000000000000000000000050
:04525000000000005A
:0400000508000131BD
:00000001FF
